:020000040800F2
:1000000000100020390200084507000847070008D3
:1000100000000000000000000000000000000000E0
:100020000000000000000000000000004907000878
:1000300000000000000000004B0700084D0700080A
:1000400089020008000000008902000889020008F7
:100050008902000889020008890200088902000854
:100060000000000089020008590700088902000802
:1000700089020008890200086907000800000000E2
:10008000890200080000000000000000890200084A
:1000900000000000890200088902000889020008A7
:1000A0000000000089020008000000007907000835
:1000B0000000000000000000000000000000000040
:1000C00010B5064C2378002B07D1054B002B02D02E
:1000D000044800E000BF0123237010BD1800002079
:1000E00000000000DC240008084B10B5002B03D0F2
:1000F0000749084800E000BF07480368002B00D10B
:1001000010BD064B002BFBD09847F9E7000000001C
:100110001C000020DC240008180000200000000063
:10012000002243088B4274D303098B425FD3030A36
:100130008B4244D3030B8B4228D3030C8B420DD349
:10014000FF22090212BA030C8B4202D312120902D7
:1001500065D0030B8B4219D300E0090AC30B8B4215
:1001600001D3CB03C01A5241830B8B4201D38B03C3
:10017000C01A5241430B8B4201D34B03C01A524168
:10018000030B8B4201D30B03C01A5241C30A8B42AB
:1001900001D3CB02C01A5241830A8B4201D38B0296
:1001A000C01A5241430A8B4201D34B02C01A52413A
:1001B000030A8B4201D30B02C01A5241CDD2C309AC
:1001C0008B4201D3CB01C01A524183098B4201D328
:1001D0008B01C01A524143098B4201D34B01C01A13
:1001E000524103098B4201D30B01C01A5241C3088B
:1001F0008B4201D3CB00C01A524183088B4201D3FA
:100200008B00C01A524143088B4201D34B00C01AE5
:100210005241411A00D20146524110467047FFE751
:1002200001B5002000F006F802BDC0460029F7D055
:1002300076E770477047C0460D4885460D480E4921
:100240000E4A002302E0D458C4500433C4188C4230
:10025000F9D30B4A0B4C002301E013600432A24295
:10026000FBD300F0EFFA02F00DF900F077F9FEE7AA
:100270000010002000000020180000204025000889
:100280001800002054030020FEE70000024B01226A
:100290001A7000225A70704734000020034B1B78FC
:1002A000092B02D90022014B1A707047340000203C
:1002B00010B5064B5B78632B00D810BD642000F0AE
:1002C00099FA0022014B5A70F7E7C046340000202B
:1002D000034B1A7801321A705A7801325A707047FB
:1002E00034000020F0B589B01422002103A802F0E8
:1002F000EDF8274B59698020C003014359615A69C1
:1003000002400092009A596980208002014359619D
:100310005A6902400192019A5A698021C9020A432E
:100320005A615B690B400293029B9026F6050022FE
:100330001821300000F010FD164F00220221380075
:1003400000F00AFD012403940494059403A93000ED
:1003500000F03CFC0323039300250495059503A9B5
:100360000D4800F033FC182303930494059406957C
:1003700003A9300000F02AFC02230393049405959E
:10038000069503A9380000F021FC09B0F0BDC04675
:1003900000100240000400480014004800B583B07B
:1003A000094A51690123194351615269134001936C
:1003B000019B002200210A2000F0A4FA0A2000F08C
:1003C000D3FA03B000BDC0460010024010B50E487D
:1003D0000E4B036082235B00436000238360E022B6
:1003E000D200C26003614361802292008261F93AC7
:1003F000FF3AC2610362436283620721C162036301
:10040000426301F057F810BD6C010020003001403C
:1004100030B587B01022002102A802F057F8082258
:100420000021684602F052F80D4C0E4B2360002567
:100430006560A560E56025616561A561200001F04A
:10044000EBF980235B01029302A9200001F00AFA74
:10045000009501956946200001F090FA07B030BD83
:100460002C010020002C014030B587B01022002163
:1004700002A802F02BF808220021684602F026F8B4
:100480000E4C0F4B23602F2363600025A5600D4B9E
:10049000E3602561A561200001F0BEF980235B01C6
:1004A000029302A9200001F0DDF90095019569464B
:1004B000200001F063FA07B030BDC04638000020CC
:1004C0000004004040420F0010B50948094B03608A
:1004D000E1235B02436000238360C36003610C225D
:1004E00042618361C3610362436201F08BFC10BD12
:1004F000BC0000200038014030B595B0302200210A
:1005000008A801F0E3FF10241022002104A801F044
:10051000DDFF10220021684601F0D8FF1223089366
:1005200001250B950D950C940E940E3C1094A02370
:100530009B03129308A800F015FC0723049305946D
:10054000002406940794012104A800F067FE00959A
:100550000294684600F022FF15B030BD10B500F0DF
:10056000B3F9FFF7C9FFFFF7BDFEFFF717FFFFF76E
:100570002DFFFFF74DFFFFF777FFFFF7A5FF01F016
:1005800009FF00F03FF9FFF781FE0921034801F060
:1005900027FFFFF783FEFFF78BFEFAE72C25000805
:1005A0007047000082B00A4B99690122114399619A
:1005B00099690A400092009ADA69802149050A4344
:1005C000DA61DB690B400193019B02B07047C046C2
:1005D0000010024010B588B004001422002103A8C6
:1005E00001F074FF2268124B9A4201D008B010BD8E
:1005F000104B996980204001014399619A6902403A
:100600000192019A5A69802189020A435A615B6901
:100610000B400293029BE0230393DE3B04930133E0
:10062000069303A99020C00500F0D0FADEE7C0468B
:10063000003001400010024000B583B00368124A48
:10064000934204D0114A934214D003B000BD104A23
:1006500091698020000101439161936903400093F7
:10066000009B002200210E2000F04CF90E2000F02B
:100670007BF9EAE7064AD16902231943D161D269BD
:1006800013400193019BE0E7002C0140000400406F
:100690000010024010B588B004001422002103A805
:1006A00001F014FF234B22689A4201D008B010BD1C
:1006B000214B99698020C001014399619A690240E8
:1006C0000192019A5A69802189020A435A615B6941
:1006D0000B400293029BC023DB000393022304938D
:1006E00001330693023B079303A99020C00500F055
:1006F0006DFA1248124B036000234360836080222E
:10070000C26003614361603A8261C36100F07CF9B9
:1007100000280BD1094B63665C62002200211B207C
:1007200000F0F0F81B2000F01FF9BFE7FFF738FFDB
:10073000F0E7C04600380140001002407800002079
:10074000300002407047FEE77047704710B500F078
:10075000CBF8FFF7BDFD10BD10B5024800F0E0F981
:1007600010BDC0467800002010B5024800F063FFBD
:1007700010BDC0462C01002010B5024801F0A8FCB5
:1007800010BDC046BC000020F8B504000D0046684E
:1007900087680A212800FFF749FD89B27B5CF37066
:1007A0006668A7680A212800FFF7BAFC80B20A2110
:1007B000FFF73CFD89B27B5CB3706668A768642173
:1007C0002800FFF7ADFC80B20A21FFF72FFD89B2A8
:1007D0007B5C73706668A468FA2189002800FFF7C3
:1007E0009FFC80B20A21FFF721FD89B2635C337060
:1007F000F8BD000010B501000148FFF7C5FF10BDAE
:100800002002002010B50C4C9023DB05E36002228F
:10081000228263610423238320000C3001F091FDC8
:10082000064BA360064B6360042323700021200065
:10083000FFF7AAFF10BDC0462002002000000020E4
:100840001C020020114B1A6801210A431A605A68E1
:100850000F4802405A601A680E4802401A601A682F
:100860000D4802401A605A680C4802405A60DA6A21
:100870000F208243DA621A6B094802401A635A6BEE
:100880008A435A6300229A607047C04600100240B3
:100890000CB8FF08FFFFF6FEFFFFFBFFFFFFC0FFE6
:1008A000ECFEFFFF10B5040000F062FDFA218900A4
:1008B000FFF736FC00F062F80022210001204042E0
:1008C00000F020F8002010BD10B5064A1368102172
:1008D0000B4313600020FFF7E5FFFFF763FE0020E6
:1008E00010BDC04600200240024A13680133136065
:1008F0007047C04644020020014B18687047C0464C
:100900004402002070B5002811DB8308144DC03369
:100910009B005C5903221040C000FC321600864048
:10092000B44389010A40824022435A5170BDC0B28B
:100930000F230340083B9B0806339B00094A94465B
:1009400063445D6803221040C000FF2422008240FF
:10095000954389010C4084402C435C60E6E7C04627
:1009600000E100E000ED00E01F2318401E3B834043
:10097000014A13607047C04600E100E001380A4BAD
:1009800098420FD8094A50600948036A1B021B0AA3
:10099000C02109060B4303620023936007331360F1
:1009A000002070470120FCE7FFFFFF0010E000E09F
:1009B00000ED00E070B5C56B0124066CB4406C60BE
:1009C000046863604368102B04D00368996003686F
:1009D000DA6070BD03689A600368D960F9E70000C7
:1009E00010B504000368064A9446634418001421B5
:1009F000FFF796FB80002064024BE36310BDC04606
:100A0000F8FFFDBF0000024070B5041E24D0212570
:100A10000223435501680B68104A1A4043688068F6
:100A20000343E06803432069034360690343A0690B
:100A30000343E069034313430B602000FFF7D0FF3B
:100A40000023A362E36223636363A363012262550D
:100A50001F32A354002070BD0120FCE70FC0FFFF30
:100A600070B504002020205C012832D00125202010
:100A700025540130205C012804D000222023E254B8
:100A8000022070BD0135203025540020A063256868
:100A900028680126B04328602000FFF78BFFE36A37
:100AA000002B0BD0226813680E210B4313602268C1
:100AB000136801210B4313600020E2E722681368EA
:100AC0000A210B4313602268136806398B431360B5
:100AD000EDE70220D5E710B52123C35C022B03D03C
:100AE00004238363012010BD026813680E218B4329
:100AF000136001680A6801239A430A60C26B1900F7
:100B0000046CA14051602122835400221F33C2543F
:100B1000436B002B02D098470020E4E70020E2E777
:100B200070B5C36B1A6804682568016C04238B4098
:100B3000134212D06B0710D523689B0603D4236899
:100B4000042293432360C26B0423016C8B405360E7
:100B5000C36A002B00D0984770BD02238B4013421C
:100B600018D0AB0716D523689B0606D423680A2243
:100B700093432360093A2123C254C26B0223016CC0
:100B80008B40536000222023C254836A002BE3D0A1
:100B90009847E1E708238B401342DDD02B07DBD5D4
:100BA00023680E2293432360C26B01231900046C57
:100BB000A140516083632122835400221F33C25419
:100BC000036B002BC8D09847C6E70000F0B5C646B7
:100BD00000B582B000237EE0DF080837BF003E5832
:100BE00007251D40AD000F24AC40A6430C69AC4066
:100BF000250035433D507EE0856864462540CE683B
:100C0000BE403543856045682C004546AC434D6881
:100C10002E09012535409D402C434460C46865463B
:100C20002C408D68BD402C43C4604C68E40051D515
:100C3000434DAE6901242643AE61AD692C40019459
:100C4000019C9C08A51CAD003E4EAE5903251D40DD
:100C5000AD000F27AF40BE439027FF05B84265D0D7
:100C6000394FB84264D0394FB84263D0384FB84298
:100C70005AD00527AF403D0035430234A400314E21
:100C8000A551344C2568D44326002E404F68FF03FD
:100C900001D515432E002F4D2E606D682E00264085
:100CA0004F68BF0301D515432E002A4D6E60AD6815
:100CB0002E0026404F68FF0201D515432E00254D1A
:100CC000AE60ED682C404E68B60201D52A43140090
:100CD000204AD46001330A681400DC402CD001247F
:100CE0009C40A0462240F5D04D68022D00D173E70C
:100CF000122D00D170E706685F0003252C00BC4070
:100D0000E443A44626404C682540BD403543056079
:100D10004D686E1E012E00D86EE7112D00D16BE7D5
:100D2000122D00D07AE767E70327A3E70027A1E7A2
:100D300001279FE702279DE702B004BC9046F0BD63
:100D40000010024000000140000400480008004874
:100D5000000C004800040140002A01D18162704764
:100D60008161FCE770B582B004000368DB0736D50B
:100D7000C14B5A680C231340042B28D0BE4B5A6831
:100D80000C231340082B1ED06368012B4BD0002B83
:100D900050D1B94B1A68B9490A401A601A68B84963
:100DA0000A401A606368002B5CD0FFF7A5FD0500C0
:100DB000B14B1B689B0312D4FFF79EFD401B6428B8
:100DC000F6D90320EAE1AC4B5B68DB03DCD5AA4B28
:100DD0001B689B0303D56368002B00D1DBE123680C
:100DE0009B0762D5A44B5B680C221A424CD0A24BE5
:100DF0005A680C231340082B42D0E368002B76D0AE
:100E00009D4A136801210B431360FFF775FD050030
:100E1000994B1B689B0761D4FFF76EFD401B0228AE
:100E2000F6D90320BAE1944A116880235B020B4390
:100E30001360B7E7052B09D08F4B1A688F490A401A
:100E40001A601A688E490A401A60ABE78A4B196823
:100E50008022D2020A431A601968802252020A4391
:100E60001A609FE7FFF748FD0500834B1B689B0353
:100E7000B5D5FFF741FD401B6428F6D903208DE16D
:100E80007D4B5B68DB03B8D47B4B1B689B0704D5A9
:100E9000E368012B01D0012080E177490B68F8223B
:100EA00093432269D20013430B6023681B0744D588
:100EB000E369002B2ED0704A536A01210B43536221
:100EC000FFF71AFD05006C4B5B6A9B0735D4FFF7F3
:100ED00013FD401B0228F6D903205FE166490B6829
:100EE000F82293432269D20013430B60DDE7624A84
:100EF000136801218B431360FFF7FEFC05005E4B76
:100F00001B689B07D1D5FFF7F7FC401B0228F6D9D9
:100F1000032043E1584A536A01218B435362FFF790
:100F2000EBFC0500544B5B6A9B0706D5FFF7E4FC1E
:100F3000401B0228F6D9032030E123685B0775D5F2
:100F40004D4BDB69DB002ED44B4AD1698020400534
:100F50000143D161D36903400193019B0125494BB2
:100F60001B68DB0521D5A368012B32D0002B36D1BD
:100F7000414B1A6A01218A431A621A6A03318A4371
:100F80001A62A368002B40D0FFF7B6FC06003A4B6C
:100F90001B6A9B0748D4FFF7AFFC801B3A4B984273
:100FA000F5D90320FAE00025D9E7364A11688023F5
:100FB0005B000B431360FFF79FFC0600314B1B687F
:100FC000DB05D0D4FFF798FC801B6428F6D90320FA
:100FD000E4E0294A136A01210B431362D1E7052B90
:100FE00009D0254B1A6A01218A431A621A6A033111
:100FF0008A431A62C5E7204B1A6A04210A431A621F
:101000001A6A03390A431A62BBE7FFF775FC060048
:10101000194B1B6A9B0707D5FFF76EFC801B1A4B09
:101020009842F5D90320B9E0012D1ED02368DB06D4
:101030005AD56369012B2BD0053349D00E4B5A6B1F
:1010400004210A435A635A6B03398A435A63FFF7F0
:1010500053FC0500084B5B6B9B0745D5FFF74CFC29
:10106000401B0228F6D9032098E0034AD3690749B8
:101070000B40D361DAE7C04600100240FFFFFEFFDD
:10108000FFFFFBFF0070004088130000FFFFFFEF31
:10109000444B5A6B04210A435A635A6B03390A437F
:1010A0005A63FFF729FC05003E4B5B6B9B0706D498
:1010B000FFF722FC401B0228F6D903206EE03949D5
:1010C0004B6BF8229343A269D20013434B630BE0AE
:1010D000344A536B04218B435363536BF4318B437A
:1010E000A169C9000B435363236A002B55D02D4AD5
:1010F00051680C220A40082A52D0022B12D0294AE9
:10110000136829490B401360FFF7F6FB0400254BD9
:101110001B689B013DD5FFF7EFFB001B0228F6D9AA
:1011200003203BE01F4A13681F490B401360FFF781
:10113000E3FB05001B4B1B689B0106D5FFF7DCFB9F
:10114000401B0228F6D9032028E0164BDA6A0F214B
:101150008A43E16A0A43DA625A6814490A40A16A7A
:10116000606A01430A435A601968802252040A43A4
:101170001A60FFF7C1FB04000A4B1B689B0106D4F1
:10118000FFF7BAFB001B0228F6D9032006E0002077
:1011900004E0002002E0012000E0002002B070BD69
:1011A0000120FBE700100240FFFFFFFEFFFFC2FF30
:1011B00030B589B004AA154B180032C832C21100EC
:1011C00002680A606A46103313CB13C21B681360AF
:1011D0000F4B5A680C231340082B13D1910C073383
:1011E000194004A8445C0A49C96A0B406946C95CB5
:1011F000D30302D40748604305E00748FEF790FF99
:10120000604300E0044809B030BDC0460C2500082A
:101210000010024000093D0000127A0070B5050080
:101220000C004D4B1A68012313408B420BD24A49E4
:101230000B680122934323430B600B681A409442CE
:1012400001D0012085E02B689B0706D5434A5368EF
:10125000F0218B43A9680B4353602B68DB074CD507
:101260006B68012B21D0022B25D03C4A12689207D3
:1012700000D46FE039494A680320824313434B602E
:10128000FFF73AFB06006B68012B1AD0022B26D021
:10129000324B5B680C221A422FD0FFF72DFB801BCC
:1012A0002F4B9842F4D9032053E02C4A1268920342
:1012B000E0D401204DE0294A12689201DAD40120DD
:1012C00047E0264B5A680C231340042B15D0FFF738
:1012D00013FB801B224B9842F3D9032039E01F4BAC
:1012E0005A680C231340082B07D0FFF705FB801B1F
:1012F0001B4B9842F3D903202BE0174B1A680123AC
:1013000013409C420BD214490B68012293432343A0
:101310000B600B681A40944201D0012019E02B6841
:101320005B0706D50D4A53680E490B40E9680B432D
:101330005360FFF73DFF094B5A6812090F23134012
:10134000094AD35CD840094B18600020FFF7AAFA7D
:10135000002070BD0120FCE7002002400010024088
:1013600088130000FFF8FFFFF42400081400002099
:10137000014B18687047C0461400002010B5FFF7F5
:10138000F7FF044B5A68120A07231340024AD35C42
:10139000D84010BD001002400425000870B582B08E
:1013A00004000368DB0335D53C4BDB69DB0048D424
:1013B0003A4AD169802040050143D161D369034095
:1013C0000193019B0125364B1B68DB053BD5334B55
:1013D0001B6AC0229200134013D061680A409342F6
:1013E0000FD02E4B186A2F4A02401E6A80214902F4
:1013F00031431962196A2C4E314019621A62C307CF
:1014000035D4264A136A27490B4061680B4313629F
:10141000012D3BD02368DB0706D5204A136B03213F
:101420008B43A1680B43136323689B0633D51B4A88
:10143000136B10218B43E1680B431363002002B050
:1014400070BD0025BFE7164A116880235B000B437F
:101450001360FFF751FA0600114B1B68DB05B6D489
:10146000FFF74AFA801B6428F6D90320E7E7FFF765
:1014700043FA0600094B1B6A9B07C2D4FFF73CFAEC
:10148000801B0A4B9842F5D90320D8E7D369084955
:101490000B40D361BEE70020D1E7C04600100240F8
:1014A00000700040FFFCFFFFFFFFFEFF88130000FD
:1014B000FFFFFFEF70B5041E5ED0002383625D3333
:1014C000C35C002B4CD002225D23E25422681368D7
:1014D00040218B431360E368E022D200934245D958
:1014E0000021F0221201934205D0E022D200934263
:1014F00001D00022A262226B002A05D1E022D20094
:10150000934236D90223236322686368A0680343A9
:10151000206903436069034380208000A569284057
:101520000343E0690343206A0343A06A0343136053
:101530002268608B04230340606A0343606B0343AB
:10154000E06803430B4353602268D3690B490B40A7
:10155000D3610023236601225D33E254002070BD75
:1015600000225C33C254FFF735F8ACE78021490113
:10157000B7E701232363C7E70120F0E7FFF7FFFF89
:1015800030B5036A046A0125AC4304628469EF350F
:10159000AC43120122430A24A3431943826101622E
:1015A00030BD000030B5036A1024A3430362846990
:1015B000036A054D2C4012032243A024A3430901D2
:1015C00019438261016230BDFF0FFFFF8368702203
:1015D00093430722114389B219438160704710B5C4
:1015E0003D22022383540468236801210B432360B6
:1015F0008154002010BD000002223D23C254036824
:10160000196A084A114207D1196A074A114203D1DF
:101610001A6801218A431A6001223D23C254002026
:101620007047C04611110000440400007047704725
:1016300070477047704710B5040003681A69920735
:101640000FD5DA6892070CD5032252421A610123A2
:10165000037703689B699B0763D0FFF7E9FF0023CB
:10166000237723681A69520712D5DA6852070FD513
:10167000052252421A610223237723689A69C02304
:101680009B001A4253D02000FFF7D2FF002323779C
:1016900023681A69120710D5DA6812070DD50922D6
:1016A00052421A61042323772368DB699B0745D0E4
:1016B0002000FFF7BDFF0023237723681A69D206B5
:1016C00012D5DA68D2060FD5112252421A610823C8
:1016D00023772368DA69C0239B001A4235D02000A3
:1016E000FFF7A6FF0023237723681A69D20702D5E4
:1016F000DA68D20730D423681A69120602D5DA688C
:10170000120630D423681A69520602D5DA685206E6
:1017100030D423681A69920602D5DA68920630D46A
:1017200010BDFFF784FF2000FFF783FF97E720003D
:10173000FFF77DFF2000FFF77CFFA7E72000FFF702
:1017400076FF2000FFF775FFB5E72000FFF76FFF7A
:101750002000FFF76EFFC5E7022252421A61200007
:10176000FFF764FFC7E7812252421A61200000F0B0
:101770002CF9C7E7412252421A612000FFF75AFFB5
:10178000C7E7212252421A61200000F01DF9C7E785
:1017900003681B4A90422AD01A4A904227D0184A1E
:1017A00090420BD0174A904208D0174A904205D079
:1017B000164A904202D0164A904203D1154A13406D
:1017C000CA681343802293434A69134303608B68BA
:1017D000C3620B6883620A4B98420DD00B4B984250
:1017E0000AD00B4B984207D0012343617047702207
:1017F00093434A681343D2E70B690363F4E7C04697
:10180000002C014000040040002000400044014042
:1018100000480140FFFCFFFF70B5041E14D03D23BB
:10182000C35C002B0AD03D2502236355211D20688F
:10183000FFF7AEFF01236355002070BD00223C334B
:10184000C254FEF7F9FEEEE70120F6E730B58468F2
:10185000034D2C401B021A4311432143816030BDCC
:10186000FF00FFFF10B504003C23C35C012B00D137
:101870007FE001223C23C25401320133C25402688A
:1018800093683D48034093600B68402B5DD010D9AE
:10189000702B43D020D8502B4DD0602B36D1CA6846
:1018A00049682068FFF77EFE60212068FFF78EFE02
:1018B0002CE0102B53D008D9202B55D0302B25D11C
:1018C00030212068FFF782FE20E0002B1ED100218E
:1018D0002068FFF77BFE19E080225201934210D06E
:1018E00080229201934211D1CB684A6889682068AE
:1018F000FFF7ACFF226891688023DB010B43936004
:1019000004E02268936807218B43936001223D2302
:10191000E2540022013BE254002010BDCB684A682B
:1019200089682068FFF792FF2268936877218B43CC
:101930000B439360EAE7CA6849682068FFF720FE16
:1019400050212068FFF742FEE0E7CA684968206836
:10195000FFF716FE40212068FFF738FED6E710217A
:101960002068FFF733FED1E720212068FFF72EFE25
:10197000CCE70220D1E7C0468800FFFFF0B53C234A
:10198000C35C012B1ED03C22012585543D2402233B
:101990000355066873687027BB43736006687368F5
:1019A0000F683B4373600668B3688027BB43B3602E
:1019B0000668B36849680B43B36005550023835438
:1019C0000020F0BD0220FCE77047704702681368F2
:1019D000C0218B43136020226923C254704700004A
:1019E0000268136806490B4013600268936823314C
:1019F000FF318B43936020226A23C2547047C04654
:101A0000DFFEFFFFF8B504006A20205C202801D02B
:101A10000220F8BD002942D0002A42D080235B0179
:101A2000A068984205D06823E35C012B08D102200E
:101A3000EFE72369002BF6D1CB07F4D50120E8E7C7
:101A400068270126E65561655823E2520025E566C0
:101A500022211233E154636E13499962636E134974
:101A6000D962636E12491963636E5D632168243124
:101A70001300626D606EFEF7F3FFE5552268116892
:101A800080235B000B4313602268936833439360A9
:101A90002268936840210B4393600020B9E701203E
:101AA000B7E70120B5E7C046B91A0008FF1A0008D9
:101AB0000B1B00087047000010B5436A02681268EB
:101AC000920615D400215A22995219680A680A48C8
:101AD00002400A6019688A680330FF3082438A60D6
:101AE00019688A683F3082438A6020216A229954AB
:101AF000180000F063FC10BDFFFEFFFF704710B53B
:101B0000406AFFF7FBFF10BD704710B5446A6923B8
:101B1000E35C212B0BD06A23E35C222B12D0E36E13
:101B200010221343E3662000FFF7EEFF10BD236889
:101B30009B681B06EFD500225223E2522000FFF7DC
:101B400045FFE8E723689B685B06E8D500225A2337
:101B5000E2522000FFF744FFE1E710B5406A00239E
:101B60005A228352083A8352FFF7CEFF10BD00007D
:101B700070B5040083680269134342691343C26964
:101B8000134301680A685B48024013430B602268F4
:101B9000536859490B40E1680B435360A369226ABB
:101BA000134321688A685548024013438B60544BA5
:101BB0001A6B03231340012B25D0002B05D0022BD9
:101BC00023D0032B23D0102300E000238022120215
:101BD000E16991421DD0022B00D16EE05ED9042B49
:101BE00000D177E0082B00D081E0256861684808C3
:101BF00080231B029C466044FEF792FA0004000C0E
:101C0000E86000202FE00423E0E70823DEE702235A
:101C1000DCE7022B28D00FD9042B30D0082B3AD187
:101C20006368580880235B029C4660446168FEF745
:101C300077FA83B200200CE0002B2CD1FFF79EFB3B
:101C4000400063685B08C0186168FEF769FA83B2F8
:101C500000200F22190091430A005B1007210B405E
:101C600013432268D36070BD63685808254B9C46B7
:101C700060446168FEF754FA83B20020E9E7FFF799
:101C800097FA400063685B08C0186168FEF748FA7D
:101C900083B20020DDE701200023DAE7002B26D104
:101CA0002568FFF76BFB61684B08C018FEF738FA30
:101CB0000004000CE8600020D5E72568616848084A
:101CC000114B9C466044FEF72BFA0004000CE860C0
:101CD0000020C8E72568FFF76BFA61684B08C01859
:101CE000FEF71EFA0004000CE8600020BBE70120AC
:101CF000B9E7C046F369FFFFFFCFFFFFFFF4FFFF27
:101D0000001002400024F40000127A00436ADB074E
:101D100006D5026853682C490B40816A0B43536017
:101D2000436A9B0706D50268536828490B40C16A7D
:101D30000B435360436A5B0706D502685368244926
:101D40000B40016B0B435360436A1B0706D50268C7
:101D5000536820490B40416B0B435360436ADB06D9
:101D600006D5026893681C490B40816B0B43936056
:101D7000436A9B0606D50268936818490B40C16BFD
:101D80000B439360436A5B060BD5026853681449A2
:101D90000B40016C0B43536080235B03026C9A423F
:101DA0000AD0436A1B0606D5026853680D490B40EA
:101DB000816C0B4353607047026853680A490B40BB
:101DC000416C0B435360ECE7FFFFFDFFFFFFFEFF9D
:101DD000FFFFFBFFFF7FFFFFFFEFFFFFFFDFFFFFC7
:101DE000FFFFEFFFFFFFF7FFFFFF9FFF0023C3662B
:101DF0002022692142540131425448328354002048
:101E00007047000010B5041E30D06923C35C002B5E
:101E100022D024226923E2542268136801218B43D3
:101E200013602000FFF7A4FE012814D0636A002B82
:101E300018D1226853680E490B405360226893689A
:101E400008218B4393602268136807390B431360A2
:101E50002000FFF7CBFF10BD00226833C254FEF70D
:101E600019FCD6E72000FFF751FFE2E70120F2E777
:101E7000FFF7FFFFF0B5C64600B505000F001600DE
:101E80009846069C2B68DB693A009A4313005A4235
:101E90005341B3421ED1631CF4D0002C05D0FEF791
:101EA0002BFD4346C01A8442ECD22A6813680B49C2
:101EB0000B4013602A689368A331FF318B43936012
:101EC00020236922AB540132AB5400224833EA5438
:101ED000032000E0002004BC9046F0BD5FFEFFFF41
:101EE000F0B585B004000F0016001D006923C35C27
:101EF000202B02D0022005B0F0BD00295BD0002AC3
:101F00005BD080235B0182689A4205D06823E35C42
:101F1000012B08D10220EEE70369002BF6D1CB0795
:101F2000F4D50120E7E701226823E2540023E366A9
:101F300020326933E254FEF7DFFC03905023E6526F
:101F40000233E65203E03B782268138501375223BF
:101F5000E35A9BB2002B1CD05222A35A013B9BB2E6
:101F6000A3520095039B002280212000FFF782FFEF
:101F7000002824D180235B01A2689A42E3D123691F
:101F8000002BE0D13B88DB05DB0D2268138502378F
:101F9000DDE70095039B002240212000FFF76AFF48
:101FA000002801D00320A6E720226923E254002262
:101FB000013BE2549FE701209DE701209BE70320BE
:101FC00099E76923C35C212B01D00220704731338C
:101FD000C35A9BB2002B11D080235B0182689A42C6
:101FE00018D0C36C5A1CC2641B7802681385522235
:101FF000835A013B9BB283520020E7E702681368D3
:1020000080218B4313600268136840390B431360CF
:102010000020DBE70369002BE3D1C36C1B88DB05E1
:10202000DB0D02681385C36C0233C364DFE710B5B0
:102030000268136840218B43136020226923C25435
:10204000FFF738FD002010BD10B55C23C25A0E33D7
:10205000C35C222B06D00268936908210B4393616D
:10206000022010BD03689B8C9BB2802149018468CB
:102070008C420ED0416D4C1C4465D2B21A400A709D
:102080005A22835A013B9BB28352002B0BD0002073
:10209000E7E701690029EDD11A40436D1A80436DCD
:1020A00002334365ECE70268136808490B4013608C
:1020B000026893682331FF318B43936020226A23A7
:1020C000C25400F07BF90020CBE7C046DFFEFFFFE3
:1020D00070B504000168CB6908680F221A4003D16B
:1020E0009D0601D585065BD48D68002A6ED001223D
:1020F0002A4003D190256D00284267D0DD0706D520
:10210000C50504D501250D62E16E2943E1669907F5
:1021100008D5002A06D0216802250D62E16E02353D
:102120002943E166590708D5002A06D0216804250D
:102130000D62E16E023D2943E166190709D581066A
:1021400001D4002A05D0226808211162E26E0A43F8
:10215000E266E26E002A41D09B0601D5830623D4B5
:10216000E36E1B0703D423689B685B0628D5200019
:10217000FFF736FC23689A6852061DD59A684021FD
:102180008A439A60636E002B12D0194A5A63606EBC
:10219000FEF7A1FC002821D0606E436B98471DE03C
:1021A0002000FFF751FF19E02000FFF74DFFD7E7B0
:1021B0002000FFF7A9FC11E02000FFF7A5FC0DE0CF
:1021C0002000FFF7A1FC0023E36607E01A0601D513
:1021D000020604D45B0601D5430604D470BD20007A
:1021E000FFF7EFFEFAE72000FFF721FFF6E7C04612
:1021F0005B1B000810B50A2000F0FEF810BD70B59A
:1022000005009024E405012201212000FEF7A4FD31
:10221000A989A8680022FEF79FFD00220121200065
:10222000FEF79AFD70BD70B504009025ED05012202
:1022300001212800FEF790FDA18800222068FEF70A
:102240008BFDFFF7D7FFA18801222068FEF784FDF0
:10225000A189A0680122FEF77FFD0022012128004C
:10226000FEF77AFD70BD70B504000E008188002273
:102270000068FEF771FD002515E0A1890022A06825
:10228000FEF76AFDFFF7B6FFA18801222068FEF77E
:1022900063FDFFF7AFFFA18800222068FEF75CFD19
:1022A00076080135EDB2072D07D8F307E5D5A189EA
:1022B0000122A068FEF750FDE4E7A1890022A06892
:1022C000FEF74AFDFFF796FFA18820680122FEF77E
:1022D00043FDFFF78FFF70BDF8B505000F00160036
:1022E000FFF78DFF40212800FFF7BDFF2800FFF713
:1022F0009AFF2800FFF783FF072139404039C9B210
:102300002800FFF7B0FF002407E0E319EB18197C61
:102310002800FFF7A8FF0134E4B2B442F5D3280047
:10232000FFF781FF2800FFF76AFFAB7B0F21194001
:102330007839C9B22800FFF796FF2800FFF773FF2E
:10234000F8BD10B586B00400052383730023C37362
:1023500004E0E218002111740133DBB2052BF8D937
:102360000023A37501330293039302330493A388DC
:10237000019301A92068FEF729FCA389019301A913
:10238000A068FEF723FC062200212000FFF7A4FF2F
:1023900006B010BD10B5012204490548FFF732FB15
:1023A00080220449044800F03FF810BD36000020A8
:1023B000BC000020540200204802002010B5026832
:1023C000044B9A4200D010BD01220349034800F09B
:1023D00032F8F8E7003801403600002048020020BB
:1023E00010B50A00024B01000248FFF779FD10BD4D
:1023F000FFFF0000BC00002010B5092800D80A200B
:10240000841E0848036800225A62FFF7E8F872B693
:10241000044B1B685B6A9C42FAD862B60148FFF71E
:10242000EBF810BD38000020002303804380C380F8
:1024300082808160704770B5002A1ED0C388D3188F
:102440008488A3421BDA002301E001339BB293424C
:102450000ED244881C19CD5C8668355544880134F9
:10246000A4B244808588AC42EFD300244480ECE7DA
:10247000C388D218C280012000E0002070BD002077
:10248000FCE7000070B500260C4D0D4C641BA41039
:10249000A64209D1002600F021F80A4D0A4C641B1F
:1024A000A410A64205D170BDB300EB589847013681
:1024B000EEE7B300EB5898470136F2E738250008FD
:1024C00038250008382500083C250008030082183C
:1024D000934200D1704719700133F9E7F8B5C0464F
:1024E000F8BC08BC9E467047F8B5C046F8BC08BCAE
:0424F0009E4670474D
:1024F40000000000000000000102030406070809B0
:102504000000000001020304020304050607080991
:102514000A0B0C0D0E0F1010010203040506070828
:10252400090A0B0C0D0E0F1054657374204C4544AE
:04253400370000006C
:04253800E9000008AE
:04253C00C1000008D2
:102540003F065B4F666D7D077D6D777C395E7971E7
:082550000000000000127A00F7
:0400000508000239B4
:00000001FF
